:020000040800F2
:1000000000000820E1500008FB4A0008FD4A0008F3
:10001000FF4A0008014B0008034B000800000000E5
:10002000000000000000000000000000054B000878
:10003000074B000800000000094B00080B4B0008AC
:100040003151000831510008315100083151000888
:100050003151000831510008315100083151000878
:100060003151000831510008315100083151000868
:100070003151000831510008315100083151000858
:100080003151000831510008315100083151000848
:100090003151000831510008315100083151000838
:1000A0003151000831510008315100083151000828
:1000B000154B00083151000831510008315100083A
:1000C0003151000831510008315100083151000808
:1000D00031510008315100083151000831510008F8
:1000E00031510008315100083151000831510008E8
:1000F00031510008315100083151000831510008D8
:1001000031510008315100083151000831510008C7
:1001100031510008315100083151000831510008B7
:10012000254B0008315100083151000831510008B9
:100130003151000831510008315100083151000897
:10014000315100083151000831510008354B000889
:100150003151000831510008315100083151000877
:100160003151000831510008315100083151000867
:1001700031510008315100083151000800000000E1
:100180003151000831510008315100083151000847
:100190003151000831510008315100083151000837
:1001A0003151000831510008315100083151000827
:1001B0003151000831510008315100083151000817
:1001C0003151000831510008000000003151000891
:1001D00031510008315100083151000831510008F7
:1001E00031510008315100083151000831510008E7
:0801F0003151000831510008F3
:1002000010B5054C237833B9044B13B10448AFF350
:1002100000800123237010BDF001002000000000C9
:10022000C459000808B5034B1BB103490348AFF399
:10023000008008BD00000000F4010020C45900083F
:1002400053B94AB9002908BF00281CBF4FF0FF313D
:100250004FF0FF3000F072B9ADF1080C6DE904CE3B
:1002600000F006F8DDF804E0DDE9022304B0704791
:100270002DE9F047089E04468846002B4BD18A4260
:10028000154667D9B2FA82F24AB1C2F1200701FAE3
:1002900002F320FA07F7954047EA030894404FEA33
:1002A000154E230CB8FBFEF71FFA85FC0EFB1788D2
:1002B00043EA084307FB0CF1994209D9EB1807F10F
:1002C000FF3080F01B81994240F21881023F2B449D
:1002D0005B1AA4B2B3FBFEF00EFB103344EA0344F6
:1002E00000FB0CFCA44509D92C1900F1FF3380F068
:1002F0000781A44540F2048102382C4440EA0740BB
:10030000A4EB0C0400271EB1D4400023C6E900432F
:100310003946BDE8F0878B4209D9002E00F0EB800A
:100320000027C6E9000138463946BDE8F087B3FA30
:1003300083F7002F47D18B4202D3824200F2FA802A
:10034000841A61EB030301209846002EE0D0C6E931
:100350000048DDE702B9FFDEB2FA82F2002A40F07F
:100360008F80491B4FEA154E1FFA85F80127B1FB14
:10037000FEFC230C0EFB1C1143EA014308FB0CF1AD
:10038000994207D9EB180CF1FF3002D2994200F2E2
:10039000CD808446591AA3B2B1FBFEF00EFB1014B7
:1003A00043EA044408FB00F8A04507D92C1900F1E2
:1003B000FF3302D2A04500F2B6801846A4EB080431
:1003C00040EA0C409FE7C7F1200CBB4022FA0CFE2C
:1003D0004EEA030E01FA07F420FA0CF521FA0CF3A9
:1003E0004FEA1E482543B3FBF8F92C0C08FB1933E0
:1003F0001FFA8EFA44EA034309FB0AF49C4202FA0C
:1004000007F200FA07F10BD91EEB030309F1FF30E5
:1004100080F087809C4240F28480A9F102097344F5
:100420001B1BADB2B3FBF8F008FB103345EA0344E5
:1004300000FB0AFAA24508D91EEB040400F1FF33C1
:100440006BD2A24569D90238744440EA0940A0FB46
:100450000289A4EB0A044C45C2464B4654D351D002
:10046000002E69D0B1EB0A0564EB030404FA0CFC1E
:10047000FD40FC404CEA0505C6E90054002747E76B
:10048000C2F1200320FA03F7954001FA02F021FAA5
:1004900003F34FEA154E3843010CB3FBFEF71FFA86
:1004A00085F80EFB173341EA034107FB08F38B4243
:1004B00004FA02F407D9691807F1FF3C2FD28B42E6
:1004C0002DD9023F2944CB1A81B2B3FBFEF00EFBBB
:1004D000103341EA034100FB08F38B4207D9691846
:1004E00000F1FF3C17D28B4215D902382944C91AB2
:1004F00040EA07473BE73746304609E70746E7E665
:100500001846FBE64145ABD2B8EB020A69EB0E0296
:1005100001381346A4E76046E9E7184695E76746C1
:10052000D1E781467CE702382C4447E7ACF1020C66
:100530002B442FE7384608E73746E9E6704700BF07
:1005400001F0FF01102A2BDB10F0070F08D010F884
:10055000013B013A8B422DD010F0070F42B3F6D188
:10056000F0B441EA012141EA014122F007047FF0A1
:1005700000070023F0E80256083C85EA010586EAF8
:10058000010685FA47F5A3FA87F586FA47F6A5FA34
:1005900087F68EB9EED1F0BC01F0FF0102F0070240
:1005A00032B110F8013B013A83EA010313B1F8D1EB
:1005B0000020704701387047002D06BF35460338CC
:1005C000073815F0010F07D1013015F4807F02BF05
:1005D000013015F4C03F0130F0BC0138704700BF56
:1005E00010B504460E4B18784FF47A73B3FBF0F352
:1005F0000C4A1068B0FBF3F000F044FB68B90F2C14
:1006000001D901200AE0002221464FF0FF3000F01E
:10061000F9FA034B5C60002000E0012010BD00BF30
:10062000000000201801002008B5094B1A6842F4A8
:1006300000721A601A6842F480721A60032000F097
:10064000CFFA0020FFF7CCFF04F0CEF9002008BD60
:10065000003C0240034A1168034B1B780B441360B3
:10066000704700BF2402002000000020014B1868E2
:10067000704700BF2402002038B50446FFF7F6FF9C
:100680000546B4F1FF3F02D0044B1B781C44FFF732
:10069000EDFF401BA042FAD338BD00BF0000002090
:1006A0004A4B5A6822F440325A605A6841680A43F9
:1006B0005A600268536823F4807353600268536879
:1006C000016943EA012353600268536823F04073D1
:1006D00053600268536881680B43536002689368F3
:1006E00023F40063936002689368C1680B439360CE
:1006F000826A374B9A424BD00268936823F070634A
:10070000936002689368816A0B4393600268936800
:1007100023F04053936002689368C16A0B4393606F
:100720000268936823F0020393600268936881690A
:1007300043EA4103936090F82030002B33D10268E4
:10074000536823F4006353600268D36A23F4700390
:10075000D3620168CB6AC269013A43EA0253CB62B1
:100760000268936823F4007393600268936890F8BA
:10077000301043EA412393600268936823F4806356
:10078000936002689368416943EA812393607047EC
:100790000268936823F0706393600268936823F0A3
:1007A00040539360BCE70268536843F400635360AE
:1007B0000268536823F46043536001684B68426ADF
:1007C000013A43EA42334B60BEE700BF00230140D9
:1007D0000100000F28B310B50446036C43B1236C2D
:1007E00013F0100F0BD00120002384F83C3010BD13
:1007F00004F012F90023636484F83C30EFE7226CC4
:10080000094B134043F0020323642046FFF748FFDF
:1008100000206064236C23F0030343F0010323648E
:10082000E2E70120704700BFFDEEFFFF30B583B067
:100830000023019390F83C30012B00F091800123BC
:1008400080F83C300468A36813F0010F13D1A3684B
:1008500043F00103A360484B1C68484BA3FB0434DE
:10086000A40C04EB4404019402E0019C013C0194BB
:10087000019C002CF9D103689C6814F0010F71D021
:10088000056C3F4C2C4044F4807404645B6813F4A2
:10089000806F05D0036C23F4405343F4805303640A
:1008A000036C13F4805F36D0436C23F0060343647B
:1008B00013460446002280F83C20826B3148D06306
:1008C000A26B31481064A26B3048D06422686FF08C
:1008D000220010602568686840F0806068602568C4
:1008E000A86840F48070A86020680A4600F14C01B6
:1008F000A06B00F0BDFA264B5B6813F01F0F0DD103
:1009000023689A6812F0405F2FD19A6842F08042C3
:100910009A60002027E000234364C9E723681D4A4A
:1009200093420AD01A4B5B6813F0100F1FD1236853
:10093000194A93420AD0002015E09A6812F0405FED
:10094000F0D19A6842F080429A60EBE79A6812F020
:10095000405F0ED19A6842F080429A60002002E027
:10096000022000E0002003B030BD0020FBE70020A3
:10097000F9E70020F7E700BF1801002083DE1B43E2
:10098000FEF8FFFFC3090008A1090008AD0900082F
:1009900000230140002001400022014070477047C1
:1009A00008B5806BFFF7FBFF08BD704708B5806B8B
:1009B00040230364436C43F004034364FFF7F5FFF3
:1009C00008BD08B5836B1A6C12F0500F26D11A6C53
:1009D00042F400721A641A68916811F0405F19D1EC
:1009E0009969B9B9D16A11F4700F03D0916811F403
:1009F000806F0FD1516821F0200151601A6C22F4F0
:100A000080721A641A6C12F4805F03D11A6C42F07F
:100A100001021A641846FFF7C1FF08BD1A6C12F0F4
:100A2000100F03D19B6BDB6C9847F6E71846FFF776
:100A3000BCFFF2E730B482B00023019390F83C3061
:100A4000012B00F0C080012380F83C300B68092B9B
:100A500022D90568EA689BB203EB43031E3B0724D7
:100A600004FA03F322EA0303EB600B68574A93424C
:100A70000BD00568EA688C689BB203EB43031E3B0E
:100A800004FA03F31343EB601BE00268D3688C683D
:100A900043EA0463D36014E005682A699BB203EB60
:100AA0004303072404FA03F322EA03032B610568D6
:100AB0002A698C680B8803EB430304FA03F313439E
:100AC0002B614B68062B24D805686A6B03EB830304
:100AD000053B1F2404FA03F322EA03036B63056852
:100AE0006A6B4B6803EB8303053B0C8804FA03F342
:100AF00013436B630268364B9A423AD00268344B18
:100B00009A423FD0002380F83C30184602B030BCF7
:100B100070470C2B16D805682A6B03EB8303233B25
:100B20001F2404FA03F322EA03032B6305682A6BEC
:100B30004B6803EB8303233B0C8804FA03F3134352
:100B40002B63D7E70568EA6A03EB8303413B1F2465
:100B500004FA03F322EA0303EB620568EA6A4B68CE
:100B600003EB8303413B0C8804FA03F31343EB626A
:100B7000C0E70B68122BC1D1164A536843F48003B7
:100B80005360BBE70B68114A112B18BF9342B9D1D0
:100B9000104A536843F4000353600A680B4B9A42AF
:100BA000B0D10D4B1B680D4AA2FB03239B0C03EB3A
:100BB00083035A00019202E0019B013B0193019BD8
:100BC000002BF9D19EE70220A0E700BF1200001021
:100BD00000200140002301401801002083DE1B4358
:100BE0000649CB6823F4E0631B041B0C000200F4ED
:100BF000E0600343024A1A43CA60704700ED00E018
:100C00000000FA0530B4154BDB68C3F30223C3F1CF
:100C10000704042C28BF04241D1D062D14D9033BF2
:100C20004FF0FF3505FA04F421EA0401994005FA72
:100C300003F322EA03031943002807DB0901C9B2C1
:100C4000074B195430BC70470023E9E700F00F0050
:100C50000901C9B2034B1954F4E700BF00ED00E0ED
:100C600000E400E014ED00E0002807DB00F01F02C4
:100C7000400901239340024A42F82030704700BFE8
:100C800000E100E00138B0F1807F0AD2064B5860E5
:100C9000064AF02182F823100020986007221A608B
:100CA00070470120704700BF10E000E000ED00E059
:100CB00030B405682C6824F480242C6004686360D8
:100CC0008368402B05D0036899600368DA6030BC04
:100CD000704703689A600368D960F8E70268D3B286
:100CE000103B0949A1FB03131B090849C95CC165F5
:100CF000032B04D8064B13408365806D7047044B6B
:100D0000134004338365F8E7ABAAAAAADC590008AC
:100D100000FCFFFF836A826992B9012B0AD01BB1E4
:100D2000022B01D000207047C36A13F0807F2CD1C2
:100D300000207047C36AB3F1C07F28D000207047FD
:100D4000B2F5005F05D0022B29D9032B15D0002066
:100D50007047032B03D8DFE803F01C041C0A0020B3
:100D60007047C36A13F0807F15D100207047C36AB3
:100D7000B3F1C07F11D000207047C36A13F0807FA9
:100D800001D00120704700207047012070470120EA
:100D900070470120704701207047012070470120F3
:100DA0007047000070B50446FFF760FC002C5BD074
:100DB0000546002384F83430022384F83530226855
:100DC000136823F00103136023681A6812F0010FFF
:100DD0000AD0FFF74BFC401B0528F5D9202363659B
:100DE000032084F8350070BD1A68204810406168FF
:100DF000A2680A43E1680A4321690A4361690A4318
:100E0000A1690A43E1690A43216A0A430243616A0C
:100E100004291ED01A602668756925F00705636AE3
:100E20001D43042B07D1A36A1D43E36A1BB120466F
:100E3000FFF770FF90B975612046FFF74FFFE26D35
:100E40003F239340836000206065012384F83530A0
:100E5000C9E7E16A206B01430A43DBE7402363658E
:100E6000012084F83500BEE70120BCE73F8010E098
:100E700038B5856D90F83440012C31D0012480F8CC
:100E8000344090F83540E4B2012C04D0002380F8BF
:100E90003430022038BD0446022084F8350000209A
:100EA00060652046FFF704FFE26D3F239340AB608F
:100EB0002268136843F0160313602268536943F0F5
:100EC00080035361236C23B12268136843F0080345
:100ED00013602268136843F0010313600020D9E710
:100EE0000220D7E7F0B583B0044600230193724B8C
:100EF0001D68724BA3FB0535AD0A876D3E68C26D58
:100F000008239340334210D003681A6812F0040F8C
:100F10000BD01A6822F004021A60C26D08239340B5
:100F2000BB60436D43F001034365E26D01239340D1
:100F3000334209D02268526912F0800F04D0BB609E
:100F4000636D43F002036365E26D04239340334213
:100F500009D02268126812F0020F04D0BB60636DE2
:100F600043F004036365E26D10239340334224D0C1
:100F70002268126812F0080F1FD0BB6023681A683D
:100F800012F4802F0DD01B6813F4002F04D1236CB2
:100F90009BB12046984710E0A36C73B12046984758
:100FA0000BE01A6812F4807F03D11A6822F008025D
:100FB0001A60236C0BB120469847E26D20239340C2
:100FC000334255D02268126812F0100F50D0BB6027
:100FD00094F83530DBB2052B0ED023681A6812F472
:100FE000802F33D01B6813F4002F2AD1636C002BA1
:100FF0003ED0204698473BE02268136823F0160352
:1010000013602268536923F080035361236CA3B1FA
:101010002268136823F008031360E26D3F239340B6
:10102000BB60002384F83430012384F83530236D0D
:10103000002B3FD0204698473CE0A36C002BE7D123
:10104000EBE7E36BA3B12046984711E01A6812F46E
:10105000807F09D11A6822F010021A60002384F8F8
:101060003430012384F83530E36B0BB120469847C8
:10107000636DFBB1636D13F0010F17D0052384F886
:1010800035302268136823F001031360019B01339C
:101090000193AB4204D823681B6813F0010FF5D10C
:1010A000002384F83430012384F83530E36C0BB12D
:1010B0002046984703B0F0BD18010020B5814E1BB3
:1010C00000230F2B00F2E280F0B482B039E0092255
:1010D00000E00022B2403A4302346D4E46F824202C
:1010E0006C4A1468EA4302EA04064F6817F4803F2A
:1010F00001D045EA0406674C2660646802EA0406EB
:101100004F6817F4003F01D045EA0406614C666061
:10111000A46802EA04064F6817F4801F01D045EA6C
:1011200004065C4CA660E46822404E6816F4001F7A
:1011300001D045EA0402574CE26001330F2B00F264
:10114000A28001229A400C6804EA0205AA42F4D166
:101150004C68122C18BF022C10D1DE08083650F84B
:1011600026C003F00704A7000F24BC402CEA040C9F
:101170000C69BC4044EA0C0440F8264004685F0057
:101180000326BE40F64306EA040C4C6804F0030450
:10119000BC4044EA0C0404604C6804F1FF3C112C90
:1011A00018BFBCF1010F01D9122C11D1846806EAD5
:1011B000040CCC68BC4044EA0C048460446824EA13
:1011C000020C4C68C4F300129A4042EA0C024260DE
:1011D000C26816408A68BA403243C2604A6812F058
:1011E000805FAAD02C4A546C44F480445464526CFE
:1011F00002F480420192019A9C08A61C244A52F8EB
:10120000267003F0030296000F22B24027EA02077D
:10121000224A90423FF45DAF02F58062904222D0B4
:1012200002F58062904220D002F5806290421ED08A
:1012300002F5806290421CD002F5806290421AD082
:1012400002F58062904218D002F58062904216D07A
:1012500002F58062904214D002F5806290423FF421
:1012600036AF0A2236E7012234E7022232E70322B0
:1012700030E704222EE705222CE706222AE7072280
:1012800028E7082226E702B0F0BC7047704700BF8D
:1012900000380140003C014000380240000002409C
:1012A0002DE9F04782B00768CA00521A9300034440
:1012B0005A6D1B6D9A4257D8B8469B1AC1EBC104B0
:1012C000A2000244526C9A4200D31A460C460646CB
:1012D00002F1030A4FEA9A0A16E009F1030A4FEAFB
:1012E0009A0AE3001B1B9D003544A96C337C0093D4
:1012F0001FFA89F3E2B2384602F06AF9AB6C4B444C
:10130000AB646B6D4B446B6508EB441303F51063E2
:101310009B699BB2534513D3E3001B1B9A003244D5
:10132000516D136D99420BD253B15B1AC4EBC401DA
:101330008A003244D2F844909945CED39946CCE7FE
:10134000E3001B1B98000644326D736D9A420FD860
:1013500004F00F040121A140D7F8344824EA010425
:10136000C7F83448002000E0012002B0BDE8F08753
:101370000020FAE7F0B58BB0002800F08A80044620
:1013800090F8BD33F3B1032384F8BD33206801F036
:10139000D5FE254655F8107B6E460FCD0FC60FCDF6
:1013A0000FC695E8030086E80300231D0ECB3846E0
:1013B00001F00AFE58B1022384F8BD330125284606
:1013C0000BB0F0BD80F8BC3303F06CFCDBE7002110
:1013D000206801F0B9FE002315E0D900C81A820088
:1013E0002244012082F83D0082F83C30A2F84230CD
:1013F000002082F83F0050649064CA1A9100214492
:1014000008650133DBB26568AB42E6D3002315E023
:10141000D800C11A8A002244002182F8FD1182F806
:10142000FC3182F8FF11C2F80412C2F80812C21A85
:1014300090002044C0F810120133DBB29D42E7D87F
:10144000254655F8107B6E460FCD0FC60FCD0FC643
:1014500095E8030086E80300231D0ECB384601F013
:10146000B9FE054660B9002384F83830012384F8BA
:10147000BD33636A012B08D0206802F03CFA9EE776
:10148000022384F8BD33012599E7204600F0CAFC09
:10149000F2E7012593E790F8BC33012B0ED010B58D
:1014A0000446012380F8BC33006802F018FA206873
:1014B00001F03EFE002084F8BC0310BD02207047FE
:1014C00070B505460E460368196C03EB461303F529
:1014D0003064A3680269012A0FD0354A914261D174
:1014E00013F4004F5AD113F0200F01D02023A36032
:1014F000F1B2284603F022FC57E013F0080F14D095
:101500002C4A914205D913F4004F02D04FF4004306
:10151000A360284603F00AFC05F5717201212868D2
:1015200002F046FA0823A3603FE013F0200F2ED10B
:1015300013F0280F39D11F4A914202D913F4004FFA
:1015400028D1F200921B93002B44D3F80422216986
:10155000C1F31201521AC3F81422D3F80412D3F8BB
:1015600008220A44C3F80822F1B2284603F0E6FB39
:10157000DEB9C6EBC606B3002B44D3F81032A3B9CC
:1015800005F571720121286802F012FA0DE020239E
:10159000A3600AE04FF40043A36006E04FF4004369
:1015A000A36002E0F1B203F0C9FB002070BD00BFF0
:1015B0000A31544F0A30544F38B5044603681D6C45
:1015C00003EB411101F530618A680369012B0DD0ED
:1015D000124B9D4214D0204603F0A8FB104B9D42B5
:1015E00002D92369012B12D0002038BD0C4B9D423B
:1015F000F1D912F4004FEED04FF400438B60EAE7CC
:1016000012F4004FE7D04FF400438B60E3E704F59A
:1016100071720121206802F0CBF9E5E70A31544FDD
:101620000A30544F2DE9F84F04460568284602F069
:101630009FF908B1BDE8F88FA8460646206802F079
:1016400066F90028F6D0206802F061F910F0020F68
:1016500004D02268536903F002035361206802F04A
:1016600056F910F4002F40F092803746206802F0BF
:101670004EF910F4802F40F0DC80206802F047F92A
:101680000028C0F24A81206802F041F910F4006F8E
:101690000AD0D5F8083813F0010F40F058812268BD
:1016A000536903F400635361206802F030F910F0CD
:1016B000006F15D02268536903F00063536194F8FA
:1016C000F433002B40F04781012184F8F4132368A0
:1016D0005B6DC3F38303C4F8F833204603F0EAFBE1
:1016E000206802F014F910F4805F40F0388120681F
:1016F00002F00DF910F4005F40F08A81206802F0DA
:1017000006F910F0100F14D02268936923F010032B
:1017100093612E6A06F00F08C6F34343022B00F0D4
:101720009481062B00F0B2812268936943F0100384
:101730009361206802F0EBF810F0080F40F0BA81D6
:10174000206802F0E4F810F4801F40F0BC812068AB
:1017500002F0DDF810F4001F40F0BF81206802F0B5
:10176000D6F810F0804F40F0C281206802F0CFF828
:1017700010F0040F3FF45EAF23685D6815F0040FAE
:1017800040F0BE81226853682B43536052E72068C3
:1017900002F0C1F88146374624E008EB47130122E6
:1017A000C3F8082B39462046FFF78AFE29E0394660
:1017B0002046FFF701FF08EB47130822C3F8082B68
:1017C00022E008EB47132022C3F8082B1AF4005F2D
:1017D00005D008EB47134FF40052C3F8082B01372C
:1017E0004FEA5909B9F1000F3FF440AF19F0010F6A
:1017F000F5D0F9B2206802F09EF8824610F0010F91
:10180000CBD11AF0080FD2D11AF0100F04D008EB88
:1018100047131022C3F8082B1AF0200FD6D02369E3
:10182000012BCED104F571720121206802F0C0F8BD
:10183000C7E7206802F077F8814637462EE0FA00C5
:10184000D21B93002344596C9A6C0A449A6448E072
:101850001AF0080F04D008EB47130822C3F8082930
:101860001AF0100F04D008EB47131022C3F8082910
:101870001AF0400F04D008EB47134022C3F80829A0
:101880001AF0020F04D008EB47130222C3F808290C
:101890001AF0800F3CD101374FEA5909B9F1000F16
:1018A0003FF4EBAE19F0010FF5D05FFA87FB594614
:1018B000206802F049F8824610F0010FC8D007F006
:1018C0000F03012101FA03F2D8F8343823EA0203A6
:1018D000C8F8343808EB4713C3F8081923698B425A
:1018E000ADD05946204603F035FA2369012BAFD11C
:1018F000002FADD1C7EBC702930023441B6D002B13
:10190000A6D104F571720121206802F051F89FE719
:1019100039462046FFF7C4FCBDE7D5F8043823F06C
:101920000103C5F8043894F8F433012B08D020469D
:1019300003F050FA2268536903F000435361A2E6B2
:10194000002184F8F413204603F0B4FAF2E72046AD
:1019500003F028FAA3E6204603F024FAC0E605F5D2
:101960000069D9F8043023F00103C9F804301021CC
:10197000206801F001FC14E008EB46134FF67F31BC
:10198000C3F80819D3F8002922F40012C3F800297B
:10199000C3F8081BD3F8002B22F40012C3F8002B65
:1019A00001366368B342E7D8D9F81C3043F001131D
:1019B000C9F81C30236BEBB1D9F8843043F00B032A
:1019C000C9F88430D9F8443043F00B03C9F84430E7
:1019D000D5F8003823F4FE63C5F8003804F57172B9
:1019E000217C206801F0E4FF2268536903F48053EE
:1019F00053617CE6D9F8142042F22B031343C9F853
:101A00001430D9F8103043F00B03C9F81030DFE779
:101A1000206801F0B1FF206801F0B6FC90B9002306
:101A2000E360266800F058FD227B0146304601F055
:101A300009FB204603F09FF92268536903F4005321
:101A400053615BE60323E360EBE747F6F0731E4266
:101A50003FF46AAE4FEAC80AAAEB08034FEA8309CB
:101A6000A1443609C6F30A02D9F80812284601F043
:101A7000B7FEC6F30A06D9F808323344C9F808326B
:101A8000D9F814321E44C9F814624DE6082204F550
:101A90007171284601F0A4FEC6F30A164FEAC80386
:101AA000A3EB08018A002244D2F814321E44C2F883
:101AB000146239E6204603F058F92268536903F0AE
:101AC000080353613CE6F9B2204603F08FF922681F
:101AD000536903F48013536139E6F9B2204603F0E9
:101AE0007FF92268536903F40013536136E62046F8
:101AF00003F082F92268536903F08043536134E6AE
:101B0000204603F07FF93DE690F8BC33012B0DD061
:101B100010B50446012380F8BC3380F83810006803
:101B200001F0CDFE002084F8BC0310BD02207047F8
:101B3000F8B511F0800F28D101F00F06F500AF1BAA
:101B4000BC00274604F5FC74044404343E460644B5
:101B5000002586F8FD5101F00F012170A260E370AD
:101B6000627802B1E180022B1ED090F8BC33012BC9
:101B70001DD00546012380F8BC332146006801F0E2
:101B800013FC002085F8BC03F8BD01F00F06F5003A
:101B9000AF1BBC0027463834044404343E46064498
:101BA000012586F83D50D6E700232371DDE70220AA
:101BB000EAE738B511F0800F21D101F00F05EA00F6
:101BC000541BA3001C4603F5FC7303440433254651
:101BD0000544002285F8FD2101F00F01197090F8ED
:101BE000BC23012A1AD00446012280F8BC231946DE
:101BF000006801F021FC002084F8BC0338BD01F02E
:101C00000F04E200151BAB001D46383303440433B8
:101C10002C460444012284F83D20DDE70220EDE754
:101C200070B501F00F05EE00711B8C0004F5FC741B
:101C30000444211D761BB4000444C4F80822C4F8EF
:101C400010320023C4F8143284F8FD3184F8FC51BA
:101C50000369012B06D065B1DAB2006801F0CCFC53
:101C6000002070BDC5EBC506B4000444C4F80C22C6
:101C7000F1E7DAB2006801F027FCF1E701F00F01AB
:101C8000C1EBC1018B001844D0F81402704770B545
:101C900001F00F05EE00711B8C0038340444211D47
:101CA000761BB4000444A26423650023636501230A
:101CB00084F83D3084F83C500369012B06D05DB1B7
:101CC000DAB2006801F098FC002070BDC5EBC506D3
:101CD000B4000444E264F2E7DAB2006801F0F4FB15
:101CE000F2E738B501F00F0543689D4236D811F090
:101CF000800F20D1CA00541AA3001C4603F5FC73C0
:101D00000344043322460244002182F8FD110122DB
:101D10009A701D7090F8BC23012A21D0044601223C
:101D200080F8BC231946006801F06EFD7DB10020EB
:101D300084F8BC0313E0EA00511B8B0019463833CA
:101D4000034404330144012281F83D20DFE704F518
:101D50007172217C206801F02BFEE8E7012038BD7C
:101D60000220FCE710B501F00F0443689C422CD818
:101D700011F0800F1DD1E3001A1B91000A4601F5F6
:101D8000FC71014404310244002382F8FD31002338
:101D90008B700C7090F8BC33012B18D004460123D3
:101DA00080F8BC33006801F05CFD002084F8BC03BF
:101DB0000CE0E3001A1B91000A463831014404315B
:101DC0000244012382F83D30E1E7012010BD0220EA
:101DD000FCE730B40468606A29B10D46A36A00EBE1
:101DE000134000230CE040EA0240A06212E003F13D
:101DF000400104EB8101496800EB11400133DBB283
:101E0000691E8B42F3D340EA024005F13F0104EB27
:101E100081014860002030BC70470368596200208F
:101E200070470000024603680121C0F8FC1300203F
:101E300082F8F4039A6942F000629A61596D024A8D
:101E40000A435A65704700BF0300001010B582B006
:101E50001B4B1A6C42F080521A641B6C03F08053C7
:101E60000193019B174A136843F480331360FEF714
:101E7000FDFB0446134B5B6813F4803F08D1FEF76B
:101E8000F5FB001BB0F57A7FF4D9032002B010BD3A
:101E90000C4A136843F400331360FEF7E7FB044673
:101EA000084B5B6813F4003F07D1FEF7DFFB001B14
:101EB000B0F57A7FF4D90320E8E70020E6E700BF19
:101EC0000038024000700040002800F0DC8170B54E
:101ED00082B00446036813F0010F29D0A24B9B681F
:101EE00003F00C03042B1AD09F4B9B6803F00C03E8
:101EF000082B0FD06368B3F5803F40D0002B54D13E
:101F0000994B1A6822F480321A601A6822F48022EF
:101F10001A6039E0944B5B6813F4800FEAD0924B5F
:101F20001B6813F4003F03D06368002B00F0AD8101
:101F3000236813F0020F75D08B4B9B6813F00C0FC6
:101F40005ED0894B9B6803F00C03082B53D0E368E9
:101F5000002B00F08A80844A136843F00103136069
:101F6000FEF784FB0546804B1B6813F0020F73D10C
:101F7000FEF77CFB401B0228F5D9032088E17A4A52
:101F8000136843F48033136063682BB3FEF76EFB72
:101F90000546754B1B6813F4003FC9D1FEF766FB7D
:101FA000401B6428F5D9032072E1B3F5A02F09D0B6
:101FB0006D4B1A6822F480321A601A6822F480226B
:101FC0001A60E1E7684B1A6842F480221A601A68C6
:101FD00042F480321A60D7E7FEF748FB0546624BB1
:101FE0001B6813F4003FA3D0FEF740FB401B64289E
:101FF000F5D903204CE15C4B5B6813F4800FA6D14C
:10200000594B1B6813F0020F04D0E368012B01D079
:1020100001203DE1544A136823F0F803216943EAA3
:10202000C1031360236813F0080F46D0636983B3BC
:102030004D4A536F43F001035367FEF717FB054604
:10204000494B5B6F13F0020F37D1FEF70FFB401BBC
:102050000228F5D903201BE1434A136823F0F80353
:10206000216943EAC1031360DCE73F4A136823F0A8
:1020700001031360FEF7FAFA05463B4B1B6813F0A9
:10208000020FCFD0FEF7F2FA401B0228F5D9032049
:10209000FEE0354A536F23F001035367FEF7E6FA7B
:1020A0000546314B5B6F13F0020F06D0FEF7DEFAE8
:1020B000401B0228F5D90320EAE0236813F0040F3F
:1020C0007ED0294B1B6C13F0805F1ED1264B1A6CFF
:1020D00042F080521A641B6C03F080530193019B01
:1020E0000125224B1B6813F4807F10D0A368012BBD
:1020F00021D0002B3CD11C4B1A6F22F001021A6731
:102100001A6F22F004021A671AE00025E9E7174A5D
:10211000136843F480731360FEF7A8FA0646134B66
:102120001B6813F4807FE1D1FEF7A0FA801B6428BE
:10213000F5D90320ACE00C4A136F43F00103136799
:10214000A3685BB3FEF792FA0646074B1B6F13F0CA
:10215000020F34D1FEF78AFA801B41F2883398428D
:10216000F3D9032094E000BF003802400070004023
:10217000052B09D0484B1A6F22F001021A671A6F1B
:1021800022F004021A67DBE7434B1A6F42F00402A5
:102190001A671A6F42F001021A67D1E7FEF766FA72
:1021A00006463D4B1B6F13F0020F08D0FEF75EFA98
:1021B000801B41F288339842F3D9032068E0F5B9D7
:1021C000A369002B63D0344A926802F00C02082AFB
:1021D00060D0022B19D0304A136823F0807313604B
:1021E000FEF744FA04462C4B1B6813F0007F48D0DE
:1021F000FEF73CFA001B0228F5D9032048E0264AE6
:10220000136C23F080531364DAE7234A136823F036
:1022100080731360FEF72AFA05461F4B1B6813F004
:10222000007F06D0FEF722FA401B0228F5D90320D2
:102230002EE0E369226A1343626A43EA8213A26AC8
:102240005208013A43EA0243E26A43EA0263226B1C
:1022500043EA0273104A5360136843F080731360BB
:10226000FEF704FA04460C4B1B6813F0007F06D1FE
:10227000FEF7FCF9001B0228F5D9032008E0002036
:1022800006E0002004E001207047012000E000206B
:1022900002B070BD0120FBE700380240324B9B6862
:1022A00003F00C03042B5CD0082B01D02F4870479F
:1022B0002DE9F04B2C4B5A6802F03F025B6813F497
:1022C000800F2BD0284B5B68C3F388131E46002772
:1022D0005C010025E41A65EB0705A90141EA946158
:1022E000A001001B61EB0501CB0043EA5073C40061
:1022F000A01943EB07014B0243EAD05344022046A6
:1023000019460023FDF79CFF174B5B68C3F301439D
:1023100001335B00B0FBF3F0BDE8F08B124B5B6860
:10232000C3F388131E4600275C010025E41A65EB01
:102330000705A90141EA9461A001001B61EB0501B9
:10234000CB0043EA5073C400A01943EB07018B0292
:1023500043EA90538402204619460023FDF770FF9C
:10236000D2E70348704700BF003802400024F40061
:1023700000127A00002800F0A28070B50446524B8B
:102380001B6803F00F038B420CD24F4A136823F0F3
:102390000F030B431360136803F00F038B4201D04C
:1023A000012070BD236813F0020F17D013F0040F43
:1023B00004D0464A936843F4E0539360236813F0D3
:1023C000080F04D0414A936843F4604393603F4A46
:1023D000936823F0F003A068034393600D462368DD
:1023E00013F0010F31D06368012B20D0022B25D0D0
:1023F000364A126812F0020F63D034498A6822F01C
:10240000030213438B60FEF731F906462F4B9B689E
:1024100003F00C036268B3EB820F16D0FEF726F9C7
:10242000801B41F288339842F0D90320B9E7274A4C
:10243000126812F4003FE0D10120B2E7234A12688B
:1024400012F0007FD9D10120ABE71F4B1B6803F0CE
:102450000F03AB420CD91C4A136823F00F032B4324
:102460001360136803F00F03AB4201D0012098E71B
:10247000236813F0040F06D0144A936823F4E05342
:10248000E1680B439360236813F0080F07D00F4AED
:10249000936823F46043216943EAC1039360FFF723
:1024A000FDFE0A4B9B68C3F30313094AD35CD84073
:1024B000084B18600020FEF793F8002071E7012018
:1024C000704701206DE700BF003C02400038024029
:1024D000E459000818010020014B1868704700BF3C
:1024E00018010020F0B583B00446036813F0010F13
:1024F0000CD0B54B9A6822F400029A609A68416B3E
:102500000A439A60436BC3B1002600E000262368AB
:1025100013F4002F15D0AC4AD2F88C3023F44013BA
:10252000E16B0B43C2F88C30E36BB3F5801F06D030
:10253000002B00F04581002504E00126E7E7012695
:10254000F6E70025236813F4801F0FD09E4AD2F8C7
:102550008C3023F44003216C0B43C2F88C30236C85
:10256000B3F5800F00F02E8103B90125236813F025
:10257000807F00D0012613F0200F40F027812368D0
:1025800013F0100F0CD0904BD3F88C2022F08072F7
:10259000C3F88C20D3F88C20A16B0A43C3F88C209D
:1025A000236813F4804F08D0874AD2F8903023F480
:1025B0004033616E0B43C2F89030236813F4004F30
:1025C00008D0814AD2F8903023F44023A16E0B4307
:1025D000C2F89030236813F4803F08D07A4AD2F8CA
:1025E000903023F44013E16E0B43C2F8903023681F
:1025F00013F4003F08D0744AD2F8903023F440031B
:10260000216F0B43C2F89030236813F0400F08D0BD
:102610006D4AD2F8903023F00303616C0B43C2F88B
:102620009030236813F0800F08D0674AD2F89030BA
:1026300023F00C03A16C0B43C2F89030236813F411
:10264000807F08D0604AD2F8903023F03003E16CEC
:102650000B43C2F89030236813F4007F08D05A4A25
:10266000D2F8903023F0C003216D0B43C2F89030B4
:10267000236813F4806F08D0534AD2F8903023F4C3
:102680004073616D0B43C2F89030236813F4006F00
:1026900008D04D4AD2F8903023F44063A16D0B432B
:1026A000C2F89030236813F4805F08D0464AD2F80D
:1026B000903023F44053E16D0B43C2F8903023680F
:1026C00013F4005F08D0404AD2F8903023F440431E
:1026D000216E0B43C2F89030236813F4800F08D0AA
:1026E000394AD2F8903023F08063A16F0B43C2F8CF
:1026F0009030236813F4001F0DD0334AD2F8903085
:1027000023F00063E16F0B43C2F89030E36FB3F145
:10271000006F00F0C180236813F0080F00D001257E
:1027200013F4802F08D0284AD2F8903023F0407359
:10273000616F0B43C2F89030236813F4000F09D087
:10274000214AD2F8903023F08053D4F880100B4304
:10275000C2F89030236813F0806F09D01A4AD2F87B
:10276000903023F00053D4F884100B43C2F890301B
:10277000236813F0006F09D0134AD2F88C3023F08D
:102780000073D4F888100B43C2F88C30236813F020
:10279000805F09D00C4AD2F88C3023F08063D4F8E3
:1027A0008C100B43C2F88C30002E77D12368B3F124
:1027B000007F73D0002D40F00481002003B0F0BDF5
:1027C0000125BFE60126CFE600380240B74B1A6C60
:1027D00042F080521A641B6C03F080530193019BFA
:1027E000B34A136843F480731360FDF73FFF074655
:1027F000AF4B1B6813F4807F06D1FDF737FFC01B7A
:102800006428F5D90320D9E7A84B1B6F13F4407354
:1028100015D0226B02F440729A4210D0A34B1A6F6B
:1028200022F44072196F41F480311967196F21F455
:10283000803119671A671B6F13F0010F12D1236BD8
:1028400003F44072B2F5407F1DD0984A936823F498
:10285000F813936095490B6F226BC2F30B0213437D
:102860000B678CE6FDF702FF0746904B1B6F13F0DA
:10287000020FE4D1FDF7FAFEC01B41F28833984203
:10288000F3D903209AE78948826822F4F81289492B
:1028900019400A438260DDE701253CE7834A13685B
:1028A00023F080631360FDF7E1FE06467F4B1B6853
:1028B00013F0006F06D0FDF7D9FE801B6428F5D910
:1028C00003207BE7236813F0010F13D0636B8BB9F0
:1028D000764AD2F88430D2F88410606803F440332A
:1028E00043EA801301F070610B43A16843EA01736E
:1028F000C2F88430236813F4002F03D0E26BB2F5E2
:10290000801F06D013F4801F1ED0236CB3F5800FF8
:102910001AD1664AD2F88430D2F88410606803F481
:10292000403343EA8013E06843EA006301F0E0418A
:102930000B43C2F88430D2F88C3023F01F03616A55
:1029400001390B43C2F88C30236813F0807F11D01B
:10295000564AD2F88400D2F88410666823691B04B2
:1029600043EA861300F07060034301F0E0410B433B
:10297000C2F88430236813F0007F0DD062682369A9
:102980001B0443EA8213E26843EA0263A26843EA53
:102990000273464AC2F88430444A136843F08063A5
:1029A0001360FDF763FE0646404B1B6813F0006F93
:1029B0007FF400AFFDF75AFE801B6428F4D9032092
:1029C000FCE63A4A136823F080531360FDF74EFE8D
:1029D0000546364B1B6813F0005F06D0FDF746FE38
:1029E000401B6428F5D90320E8E6236813F4002F80
:1029F00001D0E26B22B113F4801F1DD0236CDBB930
:102A00002A4AD2F88830D2F88810606903F440333B
:102A100043EA8013A06943EA006301F0E0410B43FD
:102A2000C2F88830D2F88C3023F4F853A16A013907
:102A300043EA0123C2F88C30236813F4001F03D04B
:102A4000E36FB3F1006F37D0236813F0080F19D08C
:102A5000164AD2F88810D2F88830606903F44033FF
:102A600043EA801301F070610B43E16943EA0173AB
:102A7000C2F88830D2F88C3023F44033E16A0B433B
:102A8000C2F88C30094A136843F080531360FDF795
:102A9000EDFD0446054B1B6813F0005F1FD1FDF7E9
:102AA000E5FD001B6428F5D9032087E600380240C5
:102AB00000700040FFFCFF0F0A4AD2F88800D2F8ED
:102AC00088106569236A1B0443EA851300F070606F
:102AD000034301F0E0410B43C2F88830B4E7002023
:102AE0006CE600BF0038024010B4036A046A24F0A8
:102AF00001040462846924F0F00444EA021223F021
:102B00000A030B43826103625DF8044B704710B403
:102B1000036A23F0100303628469036A24F4704497
:102B200044EA023223F0A00343EA01138261036204
:102B30005DF8044B7047836823F07003194341F03C
:102B40000701816070477047704770477047704752
:102B500010B5044603681A6912F0020F11D0DA6842
:102B600012F0020F0DD06FF002021A6101230377F9
:102B700003689B6913F0030F79D0FFF7E6FF00238A
:102B8000237723681A6912F0040F12D0DA6812F062
:102B9000040F0ED06FF004021A610223237723681A
:102BA0009B6913F4407F68D02046FFF7CEFF0023D7
:102BB000237723681A6912F0080F12D0DA6812F02E
:102BC000080F0ED06FF008021A61042323772368E0
:102BD000DB6913F0030F57D02046FFF7B6FF002341
:102BE000237723681A6912F0100F12D0DA6812F0F6
:102BF000100F0ED06FF010021A610823237723689C
:102C0000DB6913F4407F46D02046FFF79EFF002388
:102C1000237723681A6912F0010F03D0DA6812F0E3
:102C2000010F3FD123681A6912F0800F03D0DA68D0
:102C300012F0800F3DD123681A6912F4807F03D00F
:102C4000DA6812F0800F3BD123681A6912F0400F46
:102C500003D0DA6812F0400F39D123681A6912F0F4
:102C6000200F03D0DA6812F0200F37D110BDFFF724
:102C70006BFF2046FFF76AFF81E72046FFF764FFFE
:102C80002046FFF763FF92E72046FFF75DFF2046EF
:102C9000FFF75CFFA3E72046FFF756FF2046FFF74C
:102CA00055FFB4E76FF001021A612046FFF74BFFB2
:102CB000B8E76FF080021A61204600F064F9BAE7C5
:102CC0006FF480721A61204600F05EF9BCE76FF085
:102CD00040021A612046FFF73AFFBEE76FF020027C
:102CE0001A61204600F04EF9C0E7000070B4036896
:102CF0003A4CA04214BF00240124B0F1804F14BF0D
:102D0000224644F00102AAB9354DA84214BF00255D
:102D10000125344EB0420DD065B905F1804505F569
:102D20008235A84214BF0025012506F50066B04291
:102D300000D01DB123F070034D682B43002A33D11E
:102D4000274A904214BF00220122264DA8422BD0D0
:102D500052BB02F1804202F58232904214BF00223F
:102D6000012205F50065A8421ED0EAB91E4A90422C
:102D700014BF0022012205F59A35A84214D09AB951
:102D80001A4A904214BF0022012205F50065A842AC
:102D90000AD04AB9164A904214BF00220122A5F572
:102DA0009635A84200D01AB123F44073CA68134381
:102DB00023F080034A69134303608A68C2620A6889
:102DC00082620C4B984214BF234644F001030BB1BE
:102DD0000B6903630123436170BC7047000001402D
:102DE000000800400004004000440140001800407A
:102DF0000020004000040140A8B110B5044690F83E
:102E00003D305BB1022384F83D30211D2068FFF77F
:102E10006DFF012384F83D30002010BD80F83C3068
:102E200001F04EFEEEE70120704710B4846824F4F0
:102E30007F4442EA03230B43234383605DF8044B42
:102E40007047000090F83C30012B64D010B5044668
:102E5000012380F83C30022380F83D3002689068FE
:102E60002E4B034093600B68402B4AD013D9602B44
:102E70003DD01ED9702B28D0B3F5005F30D1CB6880
:102E80004A6889682068FFF7D0FF2268936843F496
:102E90008043936024E0102B06D004D9202B03D06C
:102EA000302B01D01CE0DBB919462068FFF743FE48
:102EB00016E0502B14D1CA6849682068FFF714FE49
:102EC00050212068FFF737FE0AE0CB684A6889681E
:102ED0002068FFF7AAFF2268936843F077039360A6
:102EE000012384F83D30002084F83C0010BDCA68FE
:102EF00049682068FFF70BFE60212068FFF71BFE82
:102F0000EEE7CA6849682068FFF7EEFD40212068B7
:102F1000FFF711FEE4E70220704700BF8800FEFFC4
:102F200090F83C30012B27D070B4012380F83C305E
:102F3000022380F83D3003685A689D680F4E104C9C
:102F4000A34218BFB34203D122F470024C6822435B
:102F500022F070020C68224325F080048968214326
:102F60005A6003689960012380F83D30002380F89F
:102F70003C30184670BC704702207047000001408A
:102F80000004014070477047704700000023013380
:102F90000C4A934211D80269002AF8DA036943F017
:102FA0000103036100230133064A934207D80269F3
:102FB00012F0010FF7D10020704703207047032063
:102FC000704700BF400D030084B010B5044603A84D
:102FD00080E80E00089B012B1DD1A36B23F48033E6
:102FE000A363E268164B1340E360E36823F44013E5
:102FF000E3600F9B012B09D02046FFF7C7FF069B1C
:10300000012B14D0BDE8104004B07047E36843F4CE
:103010008013E360F0E7E36843F04003E360204699
:10302000FFF7B4FFA36B43F48033A363E7E7A36820
:1030300043F00603A360A36843F02003A360E1E725
:10304000BFFFBDFF032A0AD00921C26822F47052D3
:10305000C260C36843EA8123C36000207047274BE6
:103060000B44274A934239D9264B0B44264A9342B4
:1030700036D9264B0B44264A934233D9254B0B4471
:1030800002F5C332A03293422ED9234B0B44234A7C
:1030900093422BD9224B0B4402F5922202F578720F
:1030A000934225D91F4B0B4402F5C32202F520722F
:1030B00093421FD91C4B0B4402F5B71202F558720C
:1030C000934219D9194B0B4402F5122202F5F8620A
:1030D000934201D90621B8E70721B6E70F21B4E7EB
:1030E0000E21B2E70D21B0E70C21AEE70B21ACE7D2
:1030F0000A21AAE70921A8E70821A6E7405327FFEC
:10310000FF340C00401E1BFF3F420F0000DC0BFF92
:103110007F4F1200808CF9FE60B6E5FE5FE316007B
:1031200000D3CEFEC05BB3FE00CA91FEE05459FE50
:10313000836843F00103836000207047836823F0B5
:10314000010383600020704708B5C36823F0C043C3
:10315000C360012909D069B9C36843F08043C360E3
:103160003220FDF789FA002008BDC36843F0005300
:10317000C360F5E70120F7E7890141F02001016113
:1031800000230133054A934205D8026912F0200F4B
:10319000F7D1002070470320704700BF400D0300A7
:1031A0001023036100230133054A934205D80269C5
:1031B00012F0100FF7D1002070470320704700BFB6
:1031C000400D0300D0F800381943C0F80018002063
:1031D0007047000084B02DE9F041044607A880E85C
:1031E0000E002546002306E003F1400204EB8202B4
:1031F0000021516001330E2BF6D9119B03BBA36B49
:1032000023F40013A363236843F04003236023687F
:1032100043F0800323600023C4F8003E04F50066F9
:10322000D4F80038C4F800380C9B012B0DD0032BC8
:103230001CD1099BABB900212046FFF7C3FF19E061
:10324000A36B43F40013A363E5E7099B23B90021B3
:103250002046FFF7B7FF0DE001212046FFF7B2FF40
:1032600008E001212046FFF7ADFF03E003212046DF
:10327000FFF7A8FF10212046FFF77EFF804608B128
:103280004FF001082046FFF78BFF08B14FF001080F
:10329000002333617361F3610AE0C3B94FF000604A
:1032A000C2F8000900220A614FF67F328A600133BA
:1032B0000799994210D905EB431202F51061D2F833
:1032C00000090028E9DB0020C2F80009EAE74FF016
:1032D0009040C2F80009E5E700230AE0BBB14FF0D7
:1032E0009047C2F8007B002202614FF67F32826075
:1032F0000133994210D905EB431202F53060D2F840
:10330000007B002FEADB0027C2F8007BEBE74FF0E1
:103310000067C2F8007BE6E7336923F4807333610A
:103320000A9B012B1BD00022A2616FF080426261D8
:103330001BB9A36943F01003A361A2690E4B1343A9
:10334000A3610D9B1BB1A36943F00803A361119B0B
:10335000012B0BD04046BDE8F04104B07047074A4E
:103360003263316B064A0A433263DCE7A269054BDC
:103370001343A361EEE700BF00383C8000018000EA
:103380000300010004000040D0F8083813F00603E1
:1033900007D0062B18BF022B01D000207047032056
:1033A000704700207047000070B40B784A78012AFB
:1033B00020D0D0F81C2803F00F060124B44042EAC4
:1033C0000442C0F81C2800EB4310D0F8003B13F473
:1033D000004F0CD1D0F8002B8B68C3F30A03C978D7
:1033E00043EA81431343134A1A43C0F8002B0020D9
:1033F00070BC7047D0F81C4803F00F06B24092B280
:103400002243C0F81C2800EB4310D0F8002912F426
:10341000004FECD1D0F800498A68C2F30A02C9789B
:1034200042EA814242EA83532343024A1A43C0F8E4
:103430000029DCE70080001070B40B784A78012A7C
:103440001FD0D0F83C5803F00F06012404FA06F60A
:1034500025EA0645C0F83C58D0F81C58097801F018
:103460000F018C4025EA0444C0F81C4800EB4310CF
:10347000D0F8002B124B1340C0F8003B002070BC6A
:103480007047D0F83C6803F00F0402FA04F4A4B2C9
:1034900026EA0404C0F83C48D0F81C48097801F03A
:1034A0000F018A4092B224EA0202C0F81C2800EB05
:1034B0004310D0F80039034A1A40C0F80029DDE76C
:1034C0000078F3EF007833EC70B40B784C78012C73
:1034D00024D000EB431000F530631D693A4C2C40BA
:1034E0001C611D69394C2C401C614C690CB18C6805
:1034F0004C611C6944F400241C611C698D68C5F38F
:1035000012052C431C61012A59D0D0F8003B43F02E
:103510000443C0F8003B002070BC70474C6954BBAA
:1035200000EB4314D4F81069284D3540C4F8105905
:10353000D4F8105945F40025C4F81059D4F810698E
:10354000214D3540C4F81059012A30D04A694AB19A
:10355000D0F83428097801F00F040121A1400A4372
:10356000C0F8342800EB4310D0F8002942F00442A0
:10357000C0F80029CFE700EB431404F51064266976
:10358000114D354025612669104D354025614E6944
:103590008D68AE4200D94D61256945F4002525614D
:1035A00025694E69C6F3120635432561CCE70A69E1
:1035B000002AD7D000EB4311C1F81429D2E7CA681A
:1035C000002AA2D05A61A0E70000F8FFFFFF07E041
:1035D00070B49DF80C4064B903339D0807E000EB1C
:1035E000023303F5805351F8046B1E600134AC4282
:1035F000F5D3002070BC7047F0B583B00B784C78E1
:10360000012C29D000EB431303F530642669714D7A
:10361000354025612669704D354025614D69002D85
:1036200040F0AA8025698E68C6F3120635432561ED
:10363000256945F400252561012A00F0B280CA7889
:10364000012A00F0B480D3F8002B42F00442C3F802
:10365000002B002003B0F0BD4C69002C3BD100EBE7
:103660004314D4F810695C4D3540C4F81059D4F8AF
:10367000105945F40025C4F81059D4F81069554D77
:103680003540C4F81059012A57D0CC78012C0BD002
:103690004C694CB1D0F834480D7805F00F0601257F
:1036A000B5402C43C0F83448CC78012C4DD000EB09
:1036B0004313D3F8004944F00444C3F80049CB78DD
:1036C000012BC6D114460B46C9681A789B8A009410
:1036D000FFF77EFFBDE700EB4314D4F810693D4DC2
:1036E0003540C4F81059D4F810693B4D3540C4F842
:1036F0001059D4F810694D698F683D44013DB5FB00
:10370000F7F5364F07EAC5453543C4F81059D4F8E4
:1037100010594E69C6F312063543C4F8105904F522
:103720001064CD78012DAED1256925F0C045256105
:10373000256945F000552561A5E70C69002CB3D03B
:1037400000EB4315C5F81449AEE7D0F8084814F467
:10375000807F08D100EB4315D5F8004944F00054B0
:10376000C5F80049A3E700EB4315D5F8004944F03C
:103770008054C5F800499AE78E683544013DB5FB91
:10378000F6F52669154F07EAC5473E4326612769C6
:103790008E68ADB206FB05F5C5F312053D43256104
:1037A0004AE7CA68002A3FF44AAF626147E7D0F8A7
:1037B000082812F4807F06D1D3F8002B42F0005283
:1037C000C3F8002B3FE7D3F8002B42F08052C3F838
:1037D000002B38E70000F8FFFFFF07E00000F81FAC
:1037E00003329208002393420CD210B400F58054A7
:1037F000246841F8044B01339342F7D308465DF83F
:10380000044B7047084670470B784A78012A14D059
:1038100000EB4310D0F8002B002A06DB2BB1D0F8C8
:10382000003B23F08043C0F8003BD0F8003B43F45A
:103830000013C0F8003B0020704700EB4310D0F8A5
:103840000029002A06DB2BB1D0F8003923F0804391
:10385000C0F80039D0F8003943F40013C0F800393B
:10386000E9E70B784A78012A0ED000EB4310D0F834
:10387000003B23F40013C0F8003BCB78023BDBB2E3
:10388000012B15D90020704700EB4310D0F8003908
:1038900023F40013C0F80039CB78023BDBB2012BD4
:1038A000F0D8D0F8003943F08053C0F80039E9E788
:1038B000D0F8003B43F08053C0F8003BE2E7D0F87B
:1038C000003823F4FE63C0F80038D0F8003809014E
:1038D00001F4FE610B43C0F800380020704708B5C2
:1038E000D0F8043823F00203C0F804380320FCF7B2
:1038F000C3FE002008BD08B5D0F8043843F0020329
:10390000C0F804380320FCF7B7FE002008BD426968
:10391000806910407047D0F8183800F50060C06921
:103920001840000C7047D0F8183800F50060C069E6
:10393000184080B2704700EB4111D1F8082B00F518
:10394000006040691040704710B4D0F81048D0F8BB
:10395000343801F00F02D340DB01DBB2234300EB2C
:10396000411000F51060806818405DF8044B704706
:10397000406900F001007047D0F800290B4B13405C
:10398000C0F8003900F500639A6802F00602042AC4
:1039900005D05A6842F480725A6000207047D0F80F
:1039A000002942F00302C0F80029F2E700F8FFFF07
:1039B00010B4046C154B9C4203D9D0F8003B002B8B
:1039C00016DB0024C0F8104BD0F8104B44F4002450
:1039D000C0F8104BD0F8104B44F01804C0F8104B4E
:1039E000D0F8104B44F0C044C0F8104B012903D06C
:1039F00000205DF8044B7047C0F8142BD0F8003B52
:103A000043F08023C0F8003BF2E700BF0A30544F78
:103A100010B5D0F89042D0F894325BB194F800021F
:103A2000FF2807D09B6894F8012221469847FF237E
:103A300084F80032002010BD432303800048704703
:103A40000800002043230380004870474C000020FA
:103A50004323038000487047900000200A2303801E
:103A600000487047D400002038B50446D0F8905282
:103A700001F019FAC5F80C02D4F890324BB1D4F821
:103A80009432DB6805F50371D5F8040298470020ED
:103A900038BD0220FCE770B5D0F89022D0F89852DB
:103AA000FAB101EB8104A3000344DB694BB1C1EB24
:103AB000C106B40025446D6CB3FBF5F405FB14336B
:103AC0001BB10020C2F8140270BD01EB810293000B
:103AD00003440024DC612346224601F059FA2046C3
:103AE000F2E70220F0E770B582B005460C46D0F848
:103AF000906200238DF80730ADF804300B7813F096
:103B0000600227D0202A56D1CA883AB9D0F8943218
:103B10009B6800224878984700204FE013F0800F00
:103B20000CD0D0F894329B68314660789847E28890
:103B30003146284600F0BDFD00203FE04B7886F876
:103B400000328B7986F80132CA88314600F0C6FD12
:103B5000002033E04B780A2B14D00B2B21D01BB163
:103B600000F085FA022029E090F87432032B05D189
:103B7000022201A900F09DFD00201FE000F077FA6D
:103B800002201BE090F87432032B06D101220DF1C4
:103B9000070100F08EFD002010E000F068FA02201E
:103BA0000CE090F87432032B01D1002006E000F005
:103BB0005EFA022002E000F05AFA022002B070BD64
:103BC00038B50446812101F0C3F90025E5620121E1
:103BD000204601F0BDF9C4F858518221204601F079
:103BE000B7F92564D4F890324BB1D4F894325B68BD
:103BF0009847D4F8900201F0CFFAC4F89052002010
:103C000038BD38B50446037CA3BB4FF400730222D1
:103C1000812101F092F90125E5624FF4007302223F
:103C20002946204601F089F9C4F858510823032297
:103C30008221204601F081F9012323644FF40770AB
:103C400001F0A2FA0546C4F8900268B3D4F89432A1
:103C50001B6898470023C5F81432C5F81832237C36
:103C6000C3B14023D5F804220121204601F098F980
:103C7000002038BD40230222812101F05EF9012598
:103C8000E562402302222946204601F056F9C4F895
:103C90005851CBE74FF40073D5F804220121204698
:103CA00001F07EF90020E4E70120E2E719B1C0F855
:103CB00094120020704702207047D0F89032C3F869
:103CC0000812C3F8102200207047D0F89032C3F8D1
:103CD000041200207047D0F89022A2B108B5D2F8A3
:103CE00014320BB1012008BD0123C2F81432D2F8FE
:103CF00010320363B2F81032D2F80822812101F0A9
:103D000047F90020EFE702207047D0F890229AB1DF
:103D100008B5037C3BB14023D2F80422012101F015
:103D20003FF9002008BD4FF40073D2F804220121AE
:103D300001F036F90020F5E70220704798B108B588
:103D40000346D0F88C0210B10020C3F88C0209B1F0
:103D5000C3F888121846012380F87432027001F00B
:103D600057F8002008BD0220704719B1C0F88C1226
:103D7000002070470220704708B501F0D6F80020F7
:103D800008BD08B5D0F88C3233B11B68984708B924
:103D9000002008BD0220FCE70220FAE708B5D0F8B1
:103DA0008C325B689847002008BD38B5044600F5A2
:103DB0002075284600F047F90123C4F86C32B4F8A6
:103DC0008632C4F8703294F8801201F01F03012B80
:103DD0000ED03BB1022B10D001F08001204601F043
:103DE000BFF803E02946204600F0C5FA002038BDA0
:103DF0002946204600F0F3FAF8E72946204600F06D
:103E00001EFBF3E738B50446A1BB1046D4F86C326C
:103E1000032B03D0052B24D0002037E0D4F84C31FD
:103E2000D4F8502193420DD99B1AC4F84C319A42D0
:103E300006D99AB20146204600F05FFC002025E03A
:103E400092B2F7E7D4F88C321B692BB194F8742244
:103E5000032A01D120469847204600F056FC002056
:103E600014E00025C4F86C522946204601F078F889
:103E700028460BE00A46D0F88C329B693BB190F89B
:103E80007412032905D111469847002038BD02203D
:103E9000FCE70220FAE710B50446002955D1104688
:103EA000D4F86C32022B09D0002B18BF042B43D05E
:103EB00094F87832012B44D0002052E0236A626AE1
:103EC00093421DD8E169B1FBF2F302FB13132BB946
:103ED0008A4203D8D4F8703299421FD3D4F88C3276
:103EE000DB682BB194F87422032A01D1204698474D
:103EF0008021204601F034F8204600F011FCD7E77D
:103F00009A1A226292B20146204600F0DFFB00239B
:103F10001A461946204601F043F8C9E70022114627
:103F2000204600F0D3FB0021C4F870120B460A466D
:103F3000204601F035F8BBE78021204601F010F85B
:103F4000B6E7002084F878020BE00A46D0F88C32FD
:103F50005B693BB190F87412032905D1114698476B
:103F6000002010BD0220FCE70220FAE770B50446ED
:103F700040230022114600F0E0FF0125C4F844511F
:103F80004026C4F85061334600228021204600F0CC
:103F9000D4FFA561666284F874520023C4F86C32C1
:103FA0006360C4F87C32D4F890322BB1D4F88C32F0
:103FB0005B68002120469847002070BD01740020F6
:103FC000704790F8743280F87532042380F87432A8
:103FD0000020704790F8753280F8743200207047E6
:103FE00008B590F87432032B01D0002008BDD0F83A
:103FF0008C32DB69002BF8D09847F6E70020704739
:10400000002070470020704708B5012280F8742214
:10401000D0F88C22526801799047002008BD002317
:1040200002E00133DBB201300278002AF9D11846F0
:10403000704708B54B88012B00D008BDC0F87C3212
:1040400000F063FBF9E70B7803704B7843708B78D3
:10405000CA7803EB022343800B794A7903EB0223EE
:1040600083808B79CA7903EB0223C380704710B534
:104070000446802100F074FF0021204600F070FF0C
:1040800010BD30B583B005460C464A88130A013B83
:104090000E2B00F29180DFE803F01B23378F8F7324
:1040A000808F8F8F8F8F8F8F0800D0F88832DB69D9
:1040B0000DF10601007C9847BDF8062012B1E38897
:1040C000002B7DD1E388002B00F0848003B030BD4D
:1040D000D0F888321B680DF10601007C9847EBE7A9
:1040E000037C43B9D0F88C329B6A0DF106009847E7
:1040F00002234370E0E7D0F88C32DB6A0DF1060052
:10410000984702234370D7E7D2B2052A34D8DFE8B4
:1041100002F0030B131B232BD0F888325B680DF1E0
:104120000601007C9847C7E7D0F888329B680DF1FC
:104130000601007C9847BFE7D0F88832DB680DF1B4
:104140000601007C9847B7E7D0F888321B690DF16B
:104150000601007C9847AFE7D0F888325B690DF123
:104160000601007C9847A7E7D0F888329B690DF1DB
:104170000601007C98479FE72146FFF778FFA5E7F7
:10418000037C33B9D0F88C325B6B0DF10600984795
:1041900092E72146FFF76BFF98E7037C43B9D0F81D
:1041A0008C321B6B0DF1060098470723437083E7A1
:1041B0002146FFF75CFF89E72146FFF758FF85E7B7
:1041C0009A4228BF1A46ADF806200146284600F05C
:1041D00070FA77E7284600F098FA77E738B5044692
:1041E0008B88F3B9CB88E3B94B887F2B19D803F0C0
:1041F0007F0590F87432032B0CD080F87652294654
:1042000000F0BEFE204600F080FA35B1022384F8AB
:10421000743209E0FFF72BFF06E0012384F87432C3
:1042200002E02046FFF723FF38BD000038B5044602
:104230000D468978284B197001290ED890F87432F0
:10424000022B0ED0032B21D02946FFF710FF224B63
:1042500019782046FFF7A2FD02E02946FFF707FF85
:1042600038BD81B14160032380F87432FFF789FDC6
:10427000022803D0204600F048FAF1E729462046FC
:10428000FFF7F5FEECE700F040FAE9E789B1436893
:1042900099421DD0D9B2FFF781FD0F4B19786160AB
:1042A0002046FFF76EFD02280DD0204600F02DFAC3
:1042B000D6E7022380F874324160FFF76FFD204695
:1042C00000F023FACCE729462046FFF7D0FEC7E7E7
:1042D00000F01BFAC4E700BF0C02002008B5CB8831
:1042E000012B0BD190F874329BB1022B09D9032B0F
:1042F0000FD10122011D00F0DCF901E0FFF7B7FE4C
:1043000008BD0146002341F8083F012200F0D1F921
:10431000F6E7FFF7ACFEF3E708B590F87432013B1F
:10432000022B12D8CB88022B0CD10123C360D0F80A
:104330007C320BB10323C360022200F10C0100F0B8
:10434000B8F908BDFFF793FEFBE7FFF790FEF8E72B
:1043500008B590F87432013B022B09D84B88012B29
:1043600000D008BD0023C0F87C3200F0CEF9F8E799
:10437000FFF77DFEF5E708B50B7803F06003202B0F
:1043800005D0402B03D043B1FFF771FE03E0D0F816
:104390008C329B689847002008BD4B78092B1BD8AE
:1043A000DFE803F011171A141A08051A0E0BFFF7AD
:1043B00068FEF0E7FFF712FFEDE7FFF737FFEAE7E8
:1043C000FFF78CFFE7E7FFF7A7FFE4E7FFF731FE12
:1043D000E1E7FFF7BDFFDEE7FFF749FEDBE738B5B2
:1043E00005460C460B7803F06003202B06D0402BCB
:1043F00004D01BB1FFF73BFE002038BD95F87432A6
:10440000013B022B16D82379012B0ED8D5F88C321C
:104410009B68214628469847E388002BECD100286A
:10442000EAD1284600F071F9E6E721462846FFF771
:104430001EFEE1E721462846FFF719FEDCE738B506
:1044400004468A880B7803F06003202B08D0D0B292
:10445000402B05D05BB12046FFF709FE002005E0A8
:10446000D4F88C329B6820469847002038BD202B1A
:1044700005D1D4F88C329B6820469847F6E74B78F4
:10448000012B3CD0002B6DD0032B40F0EF8094F833
:104490007432022B06D0032B1BD02046FFF7E7FD1A
:1044A0000020E3E7B0F1800318BF0123002808BF14
:1044B00000234BB10146204600F052FD80212046EA
:1044C00000F04EFD0020D1E72046FFF7D0FD002090
:1044D000CCE74B884BB9B0F1800318BF012300280B
:1044E00008BF00230BB1CB8823B1204600F00DF9A3
:1044F0000020BBE70146204600F032FDF5E794F8C6
:104500007432022B06D0032B1BD02046FFF7AFFDE1
:104510000020ABE7B0F1800318BF0123002808BFDB
:1045200000234BB10146204600F01AFD80212046B1
:1045300000F016FD002099E72046FFF798FD0020C7
:1045400094E74B88002B40F0968010F07F0F04D149
:10455000204600F0DAF8002088E70146204600F007
:1045600007FDF5E794F87432022B06D0032B2ED00A
:104570002046FFF77CFD002078E7B0F1800318BFEC
:104580000123002808BF002393B912F0800F14D133
:1045900000F07F0000EB8000830003F5A073E118BA
:1045A00000250D600222204600F083F828465DE7D2
:1045B0002046FFF75CFD002058E700F07F0000EB8D
:1045C0008000830003F1100121440431E8E752B276
:1045D000002A23DB00F00F0303EB83039D00254437
:1045E000D5F8443143B3002A2BDB00F07F0202EB05
:1045F0008202930003F5A073E518802814BF0023FE
:104600000123002808BF01232BB300232B600222C3
:104610002946204600F04DF8002027E700F00F0360
:1046200003EB83039D002544AB69002BDBD12046BF
:10463000FFF71DFD002019E72046FFF718FD0020B9
:1046400014E700F07F0202EB8202930003F11005F1
:1046500025440435D1E70146204600F00DFC10B199
:1046600001232B60D3E700232B60D0E72046FFF720
:10467000FEFC0020FAE60020F8E6C8B170B50D4651
:1046800016460446FFF7CBFC01304000308028700E
:1046900003236B70022307E001345A1CD2B2E954A1
:1046A0000233DBB20021A95421780029F4D170BD76
:1046B000704710B513460222C0F86C22C361036232
:1046C0000A46002100F064FC002010BD08B5134626
:1046D0000A46002100F05CFC002008BD10B513461E
:1046E0000322C0F86C22C0F84831C0F84C310A46A9
:1046F000002100F055FC002010BD08B513460A4605
:10470000002100F04DFC002008BD08B50423C0F8CE
:104710006C3200231A46194600F03AFC002008BD0E
:1047200008B50523C0F86C3200231A46194600F07C
:1047300037FC002008BD000082B00A4B1A6B42F023
:1047400080021A631A6B02F080020092009A1A6BC0
:1047500042F001021A631B6B03F001030193019BFA
:1047600002B070470038024000B583B00A4B1A6BA4
:1047700042F480021A631B6B03F480030193019BD4
:10478000002211463820FCF73DFA3820FCF76CFA7D
:1047900003B05DF804FB00BF00380240F0B585B0FF
:1047A00000250095019502950395144C144B236048
:1047B0004FF480336360A56001262661A66184F80A
:1047C0002050E5620F4BA362E5600227E76184F8A1
:1047D000306066612046FBF7FDFF009601970623D7
:1047E000029369462046FCF725F900950196694633
:1047F0002046FCF71FF905B0F0BD00BF28020020DD
:10480000002001400100000F30B589B0002404945D
:104810000594069407940194029403940F4D4FF06D
:1048200080432B6041F288336B60AC606423EB60A3
:104830002C61AC612846FEF7DFFA4FF480530493F5
:1048400004A92846FEF7FEFA20230193039401A948
:104850002846FEF765FB09B030BD00BFD00200203E
:1048600030B5B9B0342200212BA800F09DFC002403
:1048700026942794289429942A949022214602A8C9
:1048800000F092FC204B1A6C42F080521A641B6CB0
:1048900003F080530093009B1C4B1A6842F4404283
:1048A0001A601B6803F440430193019B01232B937F
:1048B0004FF480332C93022531954FF480033293CB
:1048C00004233393D82334933595092336932BA8A7
:1048D000FDF7FAFAFDF7BAFA0F23269327952894E5
:1048E0004FF4A05329934FF480532A93072126A80D
:1048F000FDF740FD4FF400130293219402A8FDF749
:10490000F1FD39B030BD00BF0038024000700040FA
:1049100000B585B0BFF34F8FBFF36F8F2D4B0021D4
:10492000C3F85012BFF34F8FBFF36F8F5A6942F431
:1049300000325A61BFF34F8FBFF36F8FC3F88410FB
:10494000BFF34F8FD3F88040C4F34E310FE01A46C7
:1049500043F6E07303EA411343EA82731D48C0F84B
:104960006032531E002AF2D14B1E19B11946C4F30E
:10497000C902EDE7BFF34F8F436943F480334361CE
:10498000BFF34F8FBFF36F8FFBF74EFEFFF768FF4C
:10499000FFF7D2FEFFF7E8FEFFF700FFFFF734FF57
:1049A00000F016F902220C490C48FBF73FFF0023E8
:1049B00001930293ADF80C300A20FBF75DFE16223E
:1049C000074901A800F0B0FC0A2101A800F050F945
:1049D000F2E700BF00ED00E01002002028020020F6
:1049E000FC5900087047000082B00A4B1A6C42F074
:1049F00080521A641A6C02F080520092009A5A6C2B
:104A000042F480425A645B6C03F480430193019B3F
:104A100002B070470038024010B588B000230393FD
:104A20000493059306930793026803F1804303F50B
:104A300090339A4201D008B010BD044603F58C3380
:104A40005A6C42F480725A645A6C02F48072019279
:104A5000019A1A6B42F001021A631B6B03F0010307
:104A60000293029B03230393049303A91148FCF7C9
:104A700027FB1148114B0360002343608360C36030
:104A80004FF4806202614FF4006242614FF40052C1
:104A900082614FF48072C2614FF4803202624362DD
:104AA000FCF780F918B9044BA3639C63C3E7FFF7D5
:104AB00099FFF8E7000002407002002010640240F5
:104AC0000368B3F1804F00D0704700B583B003F5A1
:104AD0000E331A6C42F001021A641B6C03F00103DE
:104AE0000193019B002211461C20FCF78BF81C202F
:104AF000FCF7BAF803B05DF804FB7047FEE7FEE789
:104B0000FEE7FEE770477047704708B5FBF7A2FD68
:104B100008BD000008B50248FEF71AF808BD00BF3E
:104B2000D002002008B50248FCF7DCF908BD00BF40
:104B30007002002008B50248FCF774FD08BD00BFF4
:104B4000AC15002008B503460B4A126842B10A4A68
:104B5000106803446A46934206D8074A136008BDAA
:104B6000054A06491160F2E700F0E4FA0C230360FD
:104B70004FF0FF30F3E700BF14020020B81B002005
:104B800010B40F4AD2F8883043F47003C2F888306A
:104B90000C4B196841F001011960002098601C68F5
:104BA00009492140196009495960196821F4802197
:104BB0001960D8604FF0006393605DF8044B704754
:104BC00000ED00E000380240FFFFF6FE1030002448
:104BD00008B500220F491048FFF7B0F870B90F4927
:104BE0000D48FFF7C2F860B90D490B48FFF75EF8B2
:104BF00050B90948FFF7C0F848B908BDFFF7F2FE01
:104C0000EDE7FFF7EFFEEFE7FFF7ECFEF1E7FFF769
:104C1000E9FEF2E76C01002010030020E000002014
:104C20001C010020002070470020704710B5054C83
:104C300001462046FFF749F82046FFF766F80020B6
:104C400010BD00BF1003002010B5064C002206491D
:104C50002046FFF732F805492046FFF736F80020D6
:104C600010BD00BF10030020AC0D0020AC050020DB
:104C7000094BD3F89032D3F814320BB101207047AE
:104C800010B50A460146044C2046FFF716F82046A8
:104C9000FFF721F810BD00BF1003002008B5FFF793
:104CA000DFFD08BD10B588B000230393049305937E
:104CB000069307930368B3F1A04F01D008B010BD6D
:104CC000184C236B43F001032363236B03F00103B0
:104CD0000093009B4FF4C0530393022304930323D8
:104CE00006930A23079303A90F48FCF7E9F9636BBE
:104CF00043F080036363636B03F080030193019BC4
:104D0000636C43F480436364636C03F480430293F5
:104D1000029B002211464320FBF774FF4320FBF760
:104D2000A3FFCBE7003802400000024008B500F5C1
:104D30007171D0F80004FFF738F808BD08B5C1EB71
:104D4000C10293000344D3F80822D0F80004FFF70F
:104D500059F808BD08B5C1EBC102930003449A6C31
:104D6000D0F80004FFF797F808BD08B5D0F80004A4
:104D7000FFF736F908BD10B50446C3682BB1022B06
:104D80000DD0FFF72FFE012100E00021D4F8000430
:104D9000FFF714F9D4F80004FFF7E8F810BD01217B
:104DA000F4E7000010B50446D0F80004FFF709F955
:104DB0002268D2F8003E43F00103C2F8003E236AA5
:104DC00023B1034A136943F00603136110BD00BF0A
:104DD00000ED00E008B5D0F80004FFF7FBF808BDCF
:104DE00008B5D0F80004FFF70BF908BD08B5D0F8F6
:104DF0000004FFF703F908BD08B5D0F80004FFF779
:104E000001F908BD08B5D0F80004FFF7FDF808BDAA
:104E100003780BB10020704710B503461548C0F861
:104E20000034C3F898024FF0A043036006234360A8
:104E30000222C260002303618261C3610362436294
:104E4000C3620363FCF796FA80B90A4C80212046BE
:104E5000FCF7E3FF402200212046FCF7BAFF802246
:104E600001212046FCF7B5FF002010BDFFF7BAFD79
:104E7000EBE700BFAC150020D0F8983211F0800F9E
:104E800008D101F07F01C1EBC1018A00134493F8FE
:104E9000FE01704701F07F01C1EBC1018A0013449C
:104EA00093F83E00704708B5D0F89802FCF7E6FE8C
:104EB00008BD000010B5044611B1012916D010BD7F
:104EC000036A5BB92268D2F8003E23F00103C2F8FE
:104ED000003ED4F80004FFF77DF8F0E7FFF7DEFEB0
:104EE0000C4A136923F006031361EBE70268D2F85A
:104EF000003E43F00103C2F8003ED0F80004FFF783
:104F000060F8236A002BDAD0024A136943F00603E3
:104F10001361D4E700ED00E018B1022803D00220AD
:104F20007047002070470120704708B5D0F89802FC
:104F3000FCF7B1FAFFF7F0FF08BD10B51C461346A9
:104F40002246D0F89802FCF7F3FDFFF7E5FF10BD0D
:104F500008B5D0F89802FCF72CFEFFF7DDFF08BD7E
:104F600008B5D0F89802FCF7BCFEFFF7D5FF08BDE6
:104F700008B5D0F89802FCF7F5FEFFF7CDFF08BDA5
:104F800008B5D0F89802FCF7BFFDFFF7C5FF08BDD4
:104F900008B5D0F89802FCF77AFEFFF7BDFF08BD10
:104FA00008B5D0F89802FCF73BFEFFF7B5FF08BD47
:104FB00012230B80004870472C01002004230B8033
:104FC00000487047400100200C230B8000487047C8
:104FD000440100200023934216D230B40BE0373452
:104FE00001F8134000015C00013400250D55013328
:104FF000DBB2934206D2040F092CF0D8303401F80A
:105000001340EFE730BC70477047000038B50B4BDA
:10501000186804331C6804331B68C01800D138BDFD
:10502000074D082205F12601FFF7D4FF042205F100
:1050300036012046FFF7CEFFF1E700BF20F4F01F56
:105040002C01002008B51A230B80FFF7DFFF014871
:1050500008BD00BF5001002008B50A4628B1054927
:105060000548FFF70AFB034808BD02490248FFF75D
:1050700004FBF8E7B0190020005A000810B5044CF2
:105080000A4621460348FFF7F8FA204610BD00BF44
:10509000B0190020185A000808B50A4628B1054979
:1050A0000548FFF7EAFA034808BD02490248FFF73E
:1050B000E4FAF8E7B01900202C5A000808B50A46AF
:1050C00028B105490548FFF7D8FA034808BD024949
:1050D0000248FFF7D2FAF8E7B0190020385A000862
:1050E000DFF834D0002103E00C4B5B58435004310F
:1050F0000B480C4B42189A42F6D30B4A02E00023AD
:1051000042F8043B094B9A42F9D3FFF739FD00F00E
:1051100017F8FFF7FDFB7047000008208C5A0008C5
:1051200000000020F0010020F0010020B41B00204E
:10513000FEE70000014B1868704700BF8C0100209B
:1051400070B50D4E0D4CA41BA4100025A54209D12D
:105150000B4E0C4C00F036FCA41BA4100025A542FD
:1051600005D170BD56F8253098470135EEE756F861
:10517000253098470135F2E7845A0008845A000820
:10518000845A0008885A0008024B0146186800F04B
:1051900061B800BF8C010020024B0146186800F086
:1051A0000BB800BF8C01002002440346934200D19B
:1051B000704703F8011BF9E738B50546002945D0CB
:1051C00051F8043C0C1F002BB8BFE41800F0CCF8D9
:1051D0001F4A1368104633B9636014602846BDE85F
:1051E000384000F0C2B8A3420CD92168621893423B
:1051F00004BF1A685B68636004BF521822600460D1
:10520000ECE713465A680AB1A242FAD9196858184D
:10521000A0420BD120680144581882421960DDD1A8
:10522000106852685A6001441960D7E702D90C230C
:105230002B60D3E7206821188A4204BF11685268A6
:10524000626004BF091821605C60C7E738BD00BF19
:105250001C02002070B5CD1C25F0030508350C2D6F
:1052600038BF0C25002D064601DBA94203D90C23CB
:105270003360002070BD00F077F8214A14682146A1
:1052800091B9204C23681BB9304600F03DF82060EE
:105290002946304600F038F8431C24D10C233360F3
:1052A000304600F062F8E4E70B685B1B18D40B2B68
:1052B0000FD90B60CD50CC18304600F056F804F1F1
:1052C0000B00231D20F00700C31AD3D05A42E2502E
:1052D000D0E78C424B6816BF636013600C46EBE767
:1052E0000C464968CCE7C41C24F00304A04205D056
:1052F000211A304600F008F80130CFD02560DBE7F6
:105300001C0200202002002038B5064C0023054670
:1053100008462360FFF716FC431C02D1236803B143
:105320002B6038BDB01B00200EB400B59CB01DAB87
:10533000029006906FF000410948079104910949D5
:1053400053F8042B05910068019302A900F068F856
:10535000029B00221A701CB05DF804EB03B070478A
:105360008C0100200802FFFF704770472DE9F047CD
:105370008E689E4282460C469046994637D88A8966
:1053800012F4906F31D0256809696F1A656902239C
:1053900005EB450595FBF3F509F101033B449D42FF
:1053A00038BF1D46530530D52946FFF753FF064643
:1053B00050B90C23CAF80030A38943F04003A381FD
:1053C0004FF0FF30BDE8F0873A46216900F0A8FAB7
:1053D000A38923F4906343F08003A3812661656170
:1053E0003E44ED1B2660A5604E464E4500D94E4614
:1053F00032464146206800F09EFAA3689B1BA360DA
:1054000023681E4426600020DCE72A4600F0ACFA40
:1054100006460028E2D121695046FFF7CDFEC8E7D5
:105420002DE9F04F1D468B891F069DB080460C4626
:1054300016460FD50B696BB94021FFF70BFF2060B3
:10544000206128B90C23C8F800304FF0FF30C8E0C5
:10545000402363610023099320238DF829303023F2
:105460008DF82A3003954FF0010B37463D4615F86D
:10547000013B0BB1252B3ED1B7EB060A0BD05346AF
:10548000324621464046FFF771FF013000F0A4800C
:10549000099B534409933B78002B00F09D80002327
:1054A0004FF0FF32CDE90523049307938DF8533075
:1054B0001A932F46052217F8011B5048FBF740F8B6
:1054C000049BD0B9D90644BF20228DF853201A0777
:1054D00044BF2B228DF853202A782A2A15D0079A08
:1054E0002F4600200A25394611F8013B303B092B95
:1054F0004DD9B8B10FE02F46B8E7404A801A0BFAF1
:1055000000F0184304903D46D3E7039A111D12683A
:105510000391002A01DB079204E0524243F00203A8
:10552000079204933B782E2B0CD17B782A2B33D116
:10553000039B1A1D1B680392002BB8BF4FF0FF336B
:10554000023705932E4D397803222846FAF7F8FFE3
:1055500038B14023401B03FA00F0049B034301379A
:105560000493397827488DF8281006227E1CFAF714
:10557000E7FF002838D0244B13BB039B073323F0ED
:10558000070308330393099B4B4409936DE705FB1D
:10559000023201200F46A6E7002301370593194682
:1055A0000A25384610F8012B303A092A03D9002B76
:1055B000C8D00591C6E705FB012101230746F0E7A6
:1055C00003AB00932246114B04A94046AFF3008081
:1055D000B0F1FF3F8146D6D1A3895B063FF535AFD9
:1055E00009981DB0BDE8F08F03AB00932246074B2E
:1055F00004A9404600F082F8EAE700BF485A0008D4
:105600004E5A0008525A0008000000006D5300086E
:105610002DE9F04791461F468A680B69DDF8208026
:105620009342B8BF1346C9F8003091F843200646AC
:105630000C4612B10133C9F800302368990642BF05
:10564000D9F800300233C9F80030256815F0060596
:1056500007D104F1190AE368D9F800209B1AAB427C
:1056600028DC94F843302268003318BF01239206E7
:105670002DD404F1430239463046C047013020D0D2
:105680002368E568D9F8002003F00603042B08BF5F
:10569000AD1AA36822690CBF25EAE575002593427F
:1056A000C4BF9B1AED184FF000091A344D451AD1AA
:1056B000002008E00123524639463046C0470130F9
:1056C00003D14FF0FF30BDE8F0870135C3E7E118A3
:1056D0005A1C302081F84300224494F8451082F887
:1056E00043100233C5E70123224639463046C047FE
:1056F0000130E6D009F10109D8E700002DE9F043B7
:1057000001F1430C0C46097E85B06E29174606460A
:1057100098460C9A00F0B38022D8632936D00AD874
:10572000002900F0B980582900F0838004F1420577
:1057300084F8421032E0642901D06929F6D120684A
:105740001368050603F104012AD51B681160002BBC
:1057500003DA2D225B4284F843206F480A2239E0A5
:10576000732900F09D8008D86F2920D07029DDD1E1
:10577000236843F02003236003E0752917D07829BC
:10578000D4D1782384F84530644855E01368191D56
:105790001B68116004F1420584F8423001238CE05B
:1057A0001B68116010F0400F18BF1BB2CFE71368E1
:1057B0002568181D1060280601D51B6802E06806E0
:1057C000FBD51B8854486F2914BF0A2208220021E8
:1057D00084F843106568A560002DC0F295802168AB
:1057E00021F004012160002B3DD1002D40F08E807E
:1057F0006546082A0BD12368DB0708D52369626850
:105800009A42DEBF302305F8013C05F1FF35ACEBD1
:1058100005032361CDF800803B4603AA21463046AC
:10582000FFF7F6FE01304DD14FF0FF3005B0BDE877
:10583000F083394884F84510136821681D1D1B68E2
:1058400015600A060BD5CA0744BF41F0200121604C
:105850001BB9226822F0200222601022B7E74D0611
:1058600048BF9BB2EFE76546B3FBF2F102FB113391
:10587000C35C05F8013D0B460029F5D1B9E7136873
:1058800025686169181D106028061B6801D519601C
:1058900002E06A06FBD51980002323616546B9E75B
:1058A0001368191D11601D68626800212846FAF707
:1058B00047FE08B1401B606063682361002384F8E1
:1058C0004330A7E723692A4639463046C0470130AE
:1058D000AAD023689B0713D4E068039B9842B8BF03
:1058E0001846A3E701234A4639463046C0470130EF
:1058F0009AD00135E368039A9B1AAB42F2DCEBE7DE
:10590000002504F11909F5E7002BACD1037884F8E0
:10591000423004F142056CE7595A00086A5A0008FF
:1059200010B5431E0A44914200D110BD11F8014B3D
:1059300003F8014FF7E7884210B501EB020307D8DF
:10594000421E99420AD011F8014B02F8014FF8E7C4
:105950008342F5D98118D21AD34200D110BD13F871
:10596000014D01F8014DF7E7F8B5074614460E461C
:1059700021B91146BDE8F840FFF76CBC22B9FFF72A
:105980001BFC25462846F8BD00F014F8A0420FD2B3
:1059900021463846FFF75EFC05460028F2D0314626
:1059A0002246FFF7BDFF31463846FFF705FCE9E721
:1059B0003546E7E751F8043C181F002BBCBF0B58D5
:1059C000C0187047F8B500BFF8BC08BC9E467047C9
:0C59D000F8B500BFF8BC08BC9E4670474C
:1059DC000006101600061016000000000000000063
:1059EC000102030406070809000000000102030479
:1059FC002564000053544D3332205669727475611E
:105A0C006C20436F6D506F727400000053544D69DD
:105A1C0063726F656C656374726F6E69637300009B
:105A2C0043444320436F6E66696700004344432040
:105A3C00496E74657266616365000000232D302B1E
:105A4C002000686C4C006566674546470030313273
:105A5C0033343536373839414243444546003031CA
:105A6C003233343536373839616263646566000029
:085A7C00F4A7FF7F0100000008
:045A840025020008EF
:045A8800010200080F
:105A8C00010000001000000009024300020100C0E8
:105A9C003209040000010202010005240010010576
:105AAC0024010001042402020524060001070582DA
:105ABC000308001009040100020A00000007050198
:105ACC00024000000705810240000000090243006B
